{
  "contractName": "NotarizationDappController",
  "abi": [
    {
      "inputs": [
        {
          "internalType": "string",
          "name": "_docHash",
          "type": "string"
        }
      ],
      "name": "storageDoc",
      "outputs": [],
      "stateMutability": "nonpayable",
      "type": "function"
    },
    {
      "inputs": [
        {
          "internalType": "uint256",
          "name": "_index",
          "type": "uint256"
        }
      ],
      "name": "getDocStored",
      "outputs": [
        {
          "internalType": "string",
          "name": "",
          "type": "string"
        }
      ],
      "stateMutability": "view",
      "type": "function"
    },
    {
      "inputs": [],
      "name": "getTotalDocStored",
      "outputs": [
        {
          "internalType": "uint256",
          "name": "",
          "type": "uint256"
        }
      ],
      "stateMutability": "view",
      "type": "function"
    }
  ],
  "bytecode": "0x608060405234801561001057600080fd5b50610607806100206000396000f3fe608060405234801561001057600080fd5b50600436106100415760003560e01c80631bcfee5014610046578063660c669d14610101578063b40ec3221461011f575b600080fd5b6100ff6004803603602081101561005c57600080fd5b810190808035906020019064010000000081111561007957600080fd5b82018360208201111561008b57600080fd5b803590602001918460018302840111640100000000831117156100ad57600080fd5b91908080601f016020809104026020016040519081016040528093929190818152602001838380828437600081840152601f19601f8201169050808301925050505050505091929192905050506101c6565b005b610109610280565b6040518082815260200191505060405180910390f35b61014b6004803603602081101561013557600080fd5b81019080803590602001909291905050506102c9565b6040518080602001828103825283818151815260200191508051906020019080838360005b8381101561018b578082015181840152602081019050610170565b50505050905090810190601f1680156101b85780820380516001836020036101000a031916815260200191505b509250505060405180910390f35b60018001819080600181540180825580915050600190039060005260206000200160009091909190915090805190602001906102039291906103c1565b5060016000016000815480929190600101919050555060016000803373ffffffffffffffffffffffffffffffffffffffff1673ffffffffffffffffffffffffffffffffffffffff168152602001908152602001600020600082015481600001556001820181600101908054610279929190610441565b5090505050565b60008060003373ffffffffffffffffffffffffffffffffffffffff1673ffffffffffffffffffffffffffffffffffffffff16815260200190815260200160002060000154905090565b60606000803373ffffffffffffffffffffffffffffffffffffffff1673ffffffffffffffffffffffffffffffffffffffff168152602001908152602001600020600101828154811061031757fe5b906000526020600020018054600181600116156101000203166002900480601f0160208091040260200160405190810160405280929190818152602001828054600181600116156101000203166002900480156103b55780601f1061038a576101008083540402835291602001916103b5565b820191906000526020600020905b81548152906001019060200180831161039857829003601f168201915b50505050509050919050565b828054600181600116156101000203166002900490600052602060002090601f016020900481019282601f1061040257805160ff1916838001178555610430565b82800160010185558215610430579182015b8281111561042f578251825591602001919060010190610414565b5b50905061043d91906104b1565b5090565b8280548282559060005260206000209081019282156104a05760005260206000209182015b8281111561049f578282908054600181600116156101000203166002900461048f9291906104d6565b5091600101919060010190610466565b5b5090506104ad919061055d565b5090565b6104d391905b808211156104cf5760008160009055506001016104b7565b5090565b90565b828054600181600116156101000203166002900490600052602060002090601f016020900481019282601f1061050f578054855561054c565b8280016001018555821561054c57600052602060002091601f016020900482015b8281111561054b578254825591600101919060010190610530565b5b50905061055991906104b1565b5090565b61058691905b8082111561058257600081816105799190610589565b50600101610563565b5090565b90565b50805460018160011615610100020316600290046000825580601f106105af57506105ce565b601f0160209004906000526020600020908101906105cd91906104b1565b5b5056fea264697066735822122083cc9a285de7e2529eda2f8a96e0755dd95afdaef25c8fc2c08f4934b7a3cba064736f6c63430006020033",
  "source": "pragma solidity ^0.6.2;\n\ncontract NotarizationDappController {\n\n    struct DocStorage {\n        uint256 totalDocStored;\n        string[] docsHash;\n    }\n\n    mapping(address => DocStorage) DocsMapping;\n\n    DocStorage newDocStorage;\n\n    function storageDoc(string memory _docHash) public {\n        newDocStorage.docsHash.push(_docHash);\n        newDocStorage.totalDocStored++;\n        DocsMapping[msg.sender] = newDocStorage;    //inseriamo i dati della struct nello storage utilizzando come chiave l'indirizzo del sender\n    }\n\n    function getDocStored(uint256 _index) public view returns(string memory){\n        return DocsMapping[msg.sender].docsHash[_index];    //recuperiamo file nell'array assegnato a determinato indice\n    }\n\n    function getTotalDocStored() public view returns(uint256) {\n        return DocsMapping[msg.sender].totalDocStored;\n    }\n}\n\n",
  "sourcePath": "/Users/lorenzo/Desktop/CodeBox/notarizationDapp/contracts/NotarizationDappController.sol",
  "compiler": {
    "name": "solc",
    "version": "0.6.2+commit.bacdbe57.Emscripten.clang"
  },
  "schemaVersion": "3.3.4",
  "updatedAt": "2021-03-07T22:54:12.119Z",
  "devdoc": {
    "methods": {}
  },
  "userdoc": {
    "methods": {}
  }
}